:03000000020555A1
:0C055500787FE4F6D8FD75811602059C45
:10001E0001020302020106010101020105010205AE
:10002E00020301030106020105020103020105029A
:10003E000102020402020303020107010206010289
:10004E00050103060101010202020202030102017F
:10005E00020206010105010106010101020105016D
:10006E000403020305020107010202020206010156
:10007E00010201050104030101050102030102054C
:10008E000101060101070101020201060104050139
:10009E00010601010102030202010502020302022E
:1000AE00020202030201020201010202060101051F
:1000BE00010103010203010401020406010301020E
:1000CE0001060101050101030101050101060101FE
:1000DE0001020105010400000006020305020103EE
:1000EE0002020502020602010602020502010302D5
:1000FE0004060103010201020202050201030201CC
:10010E0002020406020302030102030201030107B5
:10011E0002010602030502010302040202010502A6
:10012E0001050201030201020201030201010201A3
:10013E000701010601040102030601010602010185
:10014E00020202020205020103020102020405027A
:10015E000303020103020205020206020402030364
:10016E00020301010302020302060201010301055B
:10017E000201060201030204020201050201050248
:10018E000103020102020103020101020107010142
:10019E000601040000000602030502010302020527
:1001AE000202010302060201050201060204030215
:1001BE00020502010602010502020302020102010A
:1001CE0006010105020103020102020402020303F9
:1001DE0002010502020502010602010302020202E9
:1001EE0002010204050203030201020201010201DF
:1001FE00060101010201050106000000C0F9A4B0CC
:10020E00999282F880908883C6A1868E89C7C8C1CC
:10021E008CA3BFF88CF95BFA15FA67FB04FB90FC14
:10022E000CFC44FCACFD09FD34FD82FDC8FE06FE4F
:0D023E0022FE56FE85FE9AFEC1FEE4FF037F
:1007D7000109FF011000010F00010A00010E0001CD
:0907E7000D00010800020B0000E6
:1007B700D3EF9400EE940040147D6E7C00ED1D7025
:0F07C700011CED4C70F7EF1F70E61E80E3C28E31
:0107D6002200
:0206B7008F11A1
:1006B900E4F512E512C395115040E4F516F515F568
:1006C90014F513E47F407E1FFDFCAB16AA15A9148F
:1006D900A813C3120430501E1204A2E50A6017E5DC
:1006E900162401F516E43515F515E43514F514E469
:0C06F9003513F51380CD051280B9C28EB8
:0107050022D1
:0A000E00758911D2AFD2A9D2AB223E
:10078C00D297AF0DEF3395E0FEEF25E0FFEE33FE91
:10079C0074212FF58274023EF583E493FC7401936B
:0B07AC00FDECF58DAF058F8BD28E2287
:03000B00020003ED
:07000300758C3C758AB032D8
:03001B00020706D3
:10070600C0E0C083C082C0D075D000C004C005C0A0
:1007160006C007B297AF0DEF3395E0FEEF25E0FF79
:10072600EE33FE74212FF58274023EF583E493FCCA
:10073600740193FDECF58DAF058F8BD007D006D0F5
:0C07460005D004D0D0D082D083D0E032A7
:10024B00E50A640160030203D7E50E14604A1470DB
:10025B00030202E02402600302033190001F75F0D9
:10026B0003E50C120441E50B75F003A42583F5831C
:10027B00E4931475F007A4FF90001E75F003E50CD2
:10028B00120441E50B75F003A42583F583E4932F4A
:10029B0014F50D90002080789000E875F003E50CC4
:1002AB00120441E50B75F003A42583F583E4931445
:1002BB0075F007A4FF9000E775F003E50C120441FD
:1002CB00E50B75F003A42583F583E4932F14F50D4B
:1002DB009000E9803B9000E875F003E50C120441B7
:1002EB00E50B75F003A42583F583E4931475F007F0
:1002FB00A4FF9001A475F003E50C120441E50B7506
:10030B00F003A42583F583E4932F14F50D9001A638
:10031B0075F003E50C120441E50B75F003A425837E
:10032B00F583E493F508E50E700690020B93F580C8
:10033B00E50EB401037580B9E50EB402037580F1C7
:10034B00050CE50C7002050B12078CAF081206B7F3
:10035B00E50D75F0071203D8AFF0120666E50E70C7
:10036B001D90001E75F003E50C120441E50B75F0B2
:10037B0003A42583F583E4937004F50BF50CE50ECC
:10038B00B4011D9000E775F003E50C120441E50B79
:10039B0075F003A42583F583E4937004F50BF50C3A
:1003AB00E50E6402600302024B9001A475F003E5B5
:1003BB000C120441E50B75F003A42583F583E4933C
:0D03CB00600302024BF50BF50C02024B2201
:1004A20075A00FE5A0640F70030205547F0A7E0059
:1004B2001207B7E5A0640F700302055475A00FAFD1
:1004C200A0EF24F5601024FE60111460132407705D
:1004D20012E4F509800D750901800875090280038F
:1004E20075090375A0F0AFA0EF2450601124E060FD
:1004F2001124F0601124707013850909800E7404B0
:10050200800674088002740C2509F5091205E1E5DC
:100512000F14601104702085090DD3E509648094DD
:100522008D4014800FE5092407F50DD3E509648099
:10053200948D4003E4F50DE5106401600812078C08
:100542007F07120666E5A0B4F0FBE51064016002C5
:03055200C28E2234
:10066600EFB40800504A900673F828287302068BE8
:1006760002068F02069302069A02069E0206A2024E
:1006860006A90206B0C2B58023C2B58002D2B5C2A1
:10069600B6D2B722D2B5800DD2B58002C2B5D2B6D7
:1006A600C2B722C2B5C2B6C2B722D2B5D2B6D2B787
:0106B6002221
:1005E100E509B40F1EAF10EF3395E0FEEF2401FFD4
:1005F100E43EFE7C007D031203FA8D10E4F50FF555
:100601000A8050E5107012E509B40E0DE50F04FFE4
:1006110075F0021203D885F00FE51064017045E50D
:100621000924F3601614603024027038150EC3E5F6
:100631000E64809480502D750E0222AF0EEF33951B
:10064100E0FEEF2401FFE43EFE7C007D031203FA8D
:100651008D0EE4F50BF50C22E50A70047F01800292
:050661007F008F0A225A
:1007520012000E1204A2AF10EF3395E0FE740A2FBE
:10076200F58274023EF583E493F580E510B401103E
:10077200E50EB401037580B9E50EB402037580F18C
:0A078200E50AB401CE12024B80C953
:10056100020752E493A3F8E493A34003F68001F257
:1005710008DFF48029E493A3F85407240CC8C3339B
:10058100C4540F4420C8834004F456800146F6DF6A
:10059100E4800B01020408102040809007D7E47E1C
:1005A100019360BCA3FF543F30E509541FFEE4935F
:1005B100A360010ECF54C025E060A840B8E493A326
:1005C100FAE493A3F8E493A3C8C582C8CAC583CA51
:1005D100F0A3C8C582C8CAC583CADFE9DEE780BE09
:0107F0000008
:1003D800C2D530F707B2D563F0FF05F030E70CB2AD
:1003E800D5F4048463F0FF05F080018430D502F46D
:0203F8000422DD
:1003FA00C2D5EC30E709B2D5E4C39DFDE49CFCEE1E
:10040A0030E715B2D5E4C39FFFE49EFE12044DC344
:10041A00E49DFDE49CFC800312044D30D507C3E43F
:06042A009FFFE49EFE228C
:10043000EB9FF5F0EA9E42F0E99D42F0E89C45F022
:010440002299
:0C044100A42582F582E5F03583F58322C6
:10044D00BC000BBE0029EF8DF084FFADF022E4CC93
:10045D00F875F008EF2FFFEE33FEEC33FCEE9DEC5C
:10046D00984005FCEE9DFE0FD5F0E9E4CEFD22EDA2
:10047D00F8F5F0EE8420D21CFEADF075F008EF2FEC
:10048D00FFED33FD4007985006D5F0F222C398FDDD
:05049D000FD5F0EA227A
:00000001FF
